:020000040000FA
:0608000088EF46F0120033
:020806001800D8
:06080800D9EF25F01200FB
:02080E00C250D6
:08081000020B01E0010E1200D1
:06081800ABEF3AF0120004
:02081E000C00CC
:10082000FC8D00004C0200000C000000FA8D00005E
:100830009502000002000000F28D00006D02000031
:1008400008000000F08D000093020000020000008C
:10085000EB8D00007A02000005000000E78D00002B
:100860008702000004000000CE8D0000000200009E
:1008700019000000CC8D0000910200000200000071
:10088000C78D00007502000005000000BA8D000051
:100890003F0200000D000000060800008F0200006B
:1008A00002000000AF8D0000FF0100000100000009
:1008B000D9CFE6FFE1CFD9FF020EE1260201836B1B
:1008C000846B856B866BD9CFE1FFE552E7CFD9FF0B
:1008D0001200D9CFE6FFE1CFD9FF020EE12624C2F4
:1008E000DEFF25C2DDFFDECF00F0DDCF01F0026AC2
:1008F000036A01AE02D00268036883C204F084C2B6
:1009000005F085C206F086C207F0045E000E055AA7
:10091000065A075A07500318E8AE02D0033408D02D
:100920000050045C01500558025006580350075807
:100930002BE2DECF08F0DDCF09F00A6A0B6A09AEC0
:1009400002D00A680B6883C20CF084C20DF085C225
:100950000EF086C20FF0020E0C26000E0D220E22A3
:100960000F220B500F18E8AE02D00F3408D00C50F5
:10097000085C0D5009580E500A580F500B5804E2ED
:1009800001017F0E876FABD0DECF00F0DDCF01F02D
:10099000026A036A01AE02D00268036883C204F0EF
:1009A00084C205F085C206F086C207F0140E045E0C
:1009B000000E055A065A075A03500718E8AE02D02F
:1009C000073408D00450005C055001580650025806
:1009D0000750035804E20101370E876F80D0DECF45
:1009E00000F0DDCF01F0026A036A01AE02D00268B6
:1009F000036883C204F084C205F085C206F086C293
:100A000007F0140E0426000E0522062207220750C6
:100A10000318E8AE02D0033408D00050045C015043
:100A20000558025006580350075804E20101C80E49
:100A3000876F55D0DECF00F0DDCF01F0026A036A88
:100A400001AE02D00268036883C204F084C205F0DC
:100A500085C206F086C207F0020E045E000E055A3B
:100A6000065A075A07500318E8AE02D0033408D0DC
:100A70000050045C015005580250065803500758B6
:100A800004E30101630E876F2AD0DECF00F0DDCFD3
:100A900001F0026A036A01AE02D00268036883C2F1
:100AA00004F084C205F085C206F086C207F0020E8B
:100AB0000426000E05220622072203500718E8AE7E
:100AC00002D0073408D00450005C0550015806508D
:100AD00002580750035803E301019B0E876F81BC46
:100AE00006D0010187517F0802E27F0E876F81BE29
:100AF00006D07F0E0101875D02E27F0E876FD9CF9E
:100B0000E1FFE552E7CFD9FF1200D9CFE6FFE1CFF1
:100B1000D9FF020EE1266B0EDE6EDD6ADECF00F03D
:100B2000DDCF01F0D890015004E60E0E005C010EFE
:100B3000015811E2000EE66EE66ADECFE6FFDDCF79
:100B4000E6FF30D8E552E552E552E552DF2A010EC4
:100B500001E3DB2AE3D7D9CFE1FFE552E7CFD9FFA5
:100B60001200D9CFE6FFE1CFD9FFFD0EDBCF02F0B7
:100B7000FE0EDBCF03F06B0E025E000E035A02C0C6
:100B8000E6FF03C0E6FFC6EC3FF0E552E552006E1B
:100B9000016A00C0F3FF01C0F4FF00D0E552E7CFC7
:100BA000D9FF1200D9CFE6FFE1CFD9FFFB0EDBCF93
:100BB000E6FFFD0EDBCF00F0FE0EDBCF01F06B0E8B
:100BC000005E000E015A00C0E6FF01C0E6FFE0EC47
:100BD0003FF0E552E552E55216EC40F0E552E7CF22
:100BE000D9FF1200D9CFE6FFE1CFD9FF060EE126EB
:100BF0006B0EDE6EDD6ADECF00F0DDCF01F0D89047
:100C0000015004E60E0E005C010E015801E387D08E
:100C1000020EDB6A030EDB6A020EDBCF00F0030E6E
:100C2000DBCF01F0D890015004E6C80E005C000E46
:100C300001582AE2020EDBCF00F0030EDBCF01F0F9
:100C4000D89000360136050E0026000E0122040E53
:100C500000C0DBFF050E01C0DBFF090E416E426ADA
:100C6000040EDBCF46F0050EDBCF47F0EDEC1CF0B9
:100C7000040E3FC0DBFF050E40C0DBFF020EDB2A87
:100C8000030E01E3DB2AC8D7DECFE6FFDDCFE6FFA8
:100C9000CF0E006E830E016E026A00C0E6FF01C037
:100CA000E6FF02C0E6FFF7EC43F0F56E050EE15EED
:100CB000F550DECFE6FFDDCFE6FF53DFE552E5522C
:100CC000F3CF00F0F4CF01F000C0E6FF01C0E6FF73
:100CD000C80E026E830E036E046A02C0E6FF03C0F4
:100CE000E6FF04C0E6FFF7EC43F0F56E050EE15EAB
:100CF000F550D9CFE9FFDACFEAFFB40EEE1801E1E3
:100D0000ED5008E1800EE66E010EE66EF9EC26F07D
:100D1000E552E552DF2A010E01E3DB2A6CD7D9CF79
:100D2000E1FFE552E7CFD9FF1200D9CFE6FFE1CFCF
:100D3000D9FF040EE1268EC142F0E1EC1AF040C06A
:100D4000DEFF41C0DEFF42C0DEFF43C0DDFFDD52FB
:100D5000DD5200C0E6FFDECF40F0DECF41F0DECF57
:100D600042F0DDCF43F0DD52DD5241EC1DF041C0D9
:100D700004F042C005F004C0E6FF05C0E6FFF1DE66
:100D8000E552E552E552E7CF00F0F3CF02F0F4CFA1
:100D900003F00F0E025E000E035A0101AA51FC0B74
:100DA000E842E84200010224006E000E0320016EBA
:100DB00000C0E6FF01C0E6FF7FEC0FF0E552E55210
:100DC000D9CFE1FFE552E7CFD9FF1200D9CFE6FF37
:100DD000E1CFD9FF140EE1260101370E826F020127
:100DE000010E5C6F5C0501E0B2D201018E51DE6E36
:100DF000DD6A24C23FF025C240F026C241F027C27E
:100E000042F009EC1BF0020E40C0DBFF030E41C0B4
:100E1000DBFF040E42C0DBFF050E43C0DBFF020E0A
:100E2000DBCF00F0030EDBCF01F0040EDBCF02F0CE
:100E3000050EDBCF03F0456A466AC00E476E400ED2
:100E4000486E00C040F001C041F002C042F003C053
:100E500043F023EC1BF0020E40C0DBFF030E41C049
:100E6000DBFF040E42C0DBFF050E43C0DBFFFA0EC2
:100E7000F36E120EF3CFDBFF130EDB68120EDBCF27
:100E800000F0130EDBCF01F0D890015004E6070EFE
:100E9000005C000E015801E358D2120EDBCF04F0C3
:100EA000130EDBCF05F0DE500424026EDD5005206A
:100EB000036E02C0E6FF03C0E6FF53DEE552E552D3
:100EC000F3CF00F0F4CF01F000C041F001C042F0D8
:100ED000F4EC1AF0060E40C0DBFF070E41C0DBFF4A
:100EE000080E42C0DBFF090E43C0DBFF006A016A47
:100EF000400E026E3F0E036E00C0E6FF01C0E6FF2B
:100F000002C0E6FF03C0E6FF120EDBCF41F0130E76
:100F1000DBCF42F0F4EC1AF040C00CF041C00DF011
:100F200042C00EF043C00FF00CC0E6FF0DC0E6FF5C
:100F30000EC0E6FF0FC0E6FF18EC0FF0E552E552D9
:100F4000E552E552E552E7CF03F0E552E7CF02F074
:100F5000E552E7CF01F0E552E7CF00F03FC008F0DF
:100F600040C009F041C00AF042C00BF0456A466A31
:100F7000200E476E410E486E08C040F009C041F097
:100F80000AC042F00BC043F0B9EC1BF040C004F0C3
:100F900041C005F042C006F043C007F004C045F070
:100FA00005C046F006C047F007C048F000C040F05A
:100FB00001C041F002C042F003C043F022EC1BF03C
:100FC0000A0E40C0DBFF0B0E41C0DBFF0C0E42C01F
:100FD000DBFF0D0E43C0DBFF0A0EDBCF00F00B0E74
:100FE000DBCF01F00C0EDBCF02F00D0EDBCF03F0F8
:100FF000020EDBCF08F0030EDBCF09F0040EDBCFCF
:101000000AF0050EDBCF0BF0060EDBCF0CF0070E5F
:10101000DBCF0DF0080EDBCF0EF0090EDBCF0FF0AB
:101020000CC045F00DC046F00EC047F00FC048F0B0
:1010300008C040F009C041F00AC042F00BC043F0C4
:1010400022EC1BF040C004F041C005F042C006F0A5
:1010500043C007F004C045F005C046F006C047F0A5
:1010600007C048F000C040F001C041F002C042F0AB
:1010700003C043F00CEC1CF00E0E40C0DBFF0F0E63
:1010800041C0DBFF100E42C0DBFF110E43C0DBFF8F
:10109000120EDBCF02F0130EDBCF03F0DE50022482
:1010A000006EDD500320016E00C0E6FF01C0E6FFC8
:1010B000B60E046E830E056E066A04C0E6FF05C018
:1010C000E6FF06C0E6FFF7EC43F0F56E050EE15EC5
:1010D000F550060EDBCF02F0070EDBCF03F0080E53
:1010E000DBCF04F0090EDBCF05F00E0EDBCF06F0F0
:1010F0000F0EDBCF07F0100EDBCF08F0110EDBCFA9
:1011000009F006C045F007C046F008C047F009C026
:1011100048F002C040F003C041F004C042F005C0F6
:1011200043F023EC1BF041EC1DF041C000F042C045
:1011300001F000C0E6FF01C0E6FFA80E0A6E830EB4
:101140000B6E0C6A0AC0E6FF0BC0E6FF0CC0E6FFA0
:10115000F7EC43F0F56E050EE15EF5500A0EDBCFBD
:1011600002F00B0EDBCF03F00C0EDBCF04F00D0E04
:10117000DBCF05F0456A466A200E476E410E486E89
:1011800002C040F003C041F004C042F005C043F08B
:101190000CEC1CF041EC1DF041C000F042C001F02D
:1011A00000C0E6FF01C0E6FF940E066E830E076ED8
:1011B000086A06C0E6FF07C0E6FF08C0E6FFF7ECD6
:1011C00043F0F56E050EE15EF550020EDBCF02F046
:1011D000030EDBCF03F0040EDBCF04F0050EDBCFF4
:1011E00005F0060EDBCF06F0070EDBCF07F0080E8A
:1011F000DBCF08F0090EDBCF09F006C045F007C0D1
:1012000046F008C047F009C048F002C040F003C0F3
:1012100041F004C042F005C043F022EC1BF041EC69
:101220001DF041C000F042C001F000C0E6FF01C067
:10123000E6FF800E0A6E830E0B6E0C6A0AC0E6FF94
:101240000BC0E6FF0CC0E6FFF7EC43F0F56E050EB1
:10125000E15EF550120EDBCF04F0130EDBCF05F08C
:10126000DE500424026EDD500520036E02C0E6FF4E
:1012700003C0E6FF76DCE552E552F3CF00F0F4CF91
:1012800001F000C0E6FF01C0E6FF6C0E066E830EA3
:10129000076E086A06C0E6FF07C0E6FF08C0E6FF63
:1012A000F7EC43F0F56E050EE15EF550060EDBCF70
:1012B00002F0070EDBCF03F0080EDBCF04F0090EBF
:1012C000DBCF05F00E0EDBCF06F00F0EDBCF07F005
:1012D000100EDBCF08F0110EDBCF09F006C045F091
:1012E00007C046F008C047F009C048F002C040F00F
:1012F00003C041F004C042F005C043F023EC1BF0F2
:1013000041EC1DF041C000F042C001F000C0E6FF1A
:1013100001C0E6FF120EDBCF0CF0130EDBCF0DF099
:10132000DE500C240A6EDD500D200B6E0AC0E6FF65
:101330000BC0E6FF37DCE552E552E552E552120EEE
:10134000DB2A130E01E3DB2A99D502015C6BD9CFAE
:10135000E1FFE552E7CFD9FF1200D9CFE6FFE1CF99
:10136000D9FF140EE1260101370E826F0201010E32
:101370005C6F5C0501E0B5D201018E51DE6EDD6A65
:1013800024C23FF025C240F026C241F027C242F0FD
:1013900009EC1BF0020E40C0DBFF030E41C0DBFF77
:1013A000040E42C0DBFF050E43C0DBFF020EDBCFA5
:1013B00000F0030EDBCF01F0040EDBCF02F0050ED0
:1013C000DBCF03F0456A466AC00E476E400E486E9A
:1013D00000C040F001C041F002C042F003C043F041
:1013E00022EC1BF0020E40C0DBFF030E41C0DBFF0E
:1013F000040E42C0DBFF050E43C0DBFFFA0EF36EA6
:10140000120EF3CFDBFF130EDB68120EDBCF00F002
:10141000130EDBCF01F0D890015004E6070E005CFC
:10142000000E015801E35BD2120EDBCF04F0130E65
:10143000DBCF05F0DE500424026EDD500520036E84
:1014400002C0E6FF03C0E6FFB1EC05F0E552E5524D
:10145000F3CF00F0F4CF01F000C041F001C042F042
:10146000F4EC1AF0060E40C0DBFF070E41C0DBFFB4
:10147000080E42C0DBFF090E43C0DBFF006A016AB1
:10148000800E026E3F0E036E00C0E6FF01C0E6FF55
:1014900002C0E6FF03C0E6FF120EDBCF41F0130EE1
:1014A000DBCF42F0F4EC1AF040C00CF041C00DF07C
:1014B00042C00EF043C00FF00CC0E6FF0DC0E6FFC7
:1014C0000EC0E6FF0FC0E6FF18EC0FF0E552E55244
:1014D000E552E552E552E7CF03F0E552E7CF02F0DF
:1014E000E552E7CF01F0E552E7CF00F03FC008F04A
:1014F00040C009F041C00AF042C00BF0456A466A9C
:10150000200E476E410E486E08C040F009C041F001
:101510000AC042F00BC043F0B9EC1BF040C004F02D
:1015200041C005F042C006F043C007F004C045F0DA
:1015300005C046F006C047F007C048F000C040F0C4
:1015400001C041F002C042F003C043F022EC1BF0A6
:101550000A0E40C0DBFF0B0E41C0DBFF0C0E42C089
:10156000DBFF0D0E43C0DBFF0A0EDBCF00F00B0EDE
:10157000DBCF01F00C0EDBCF02F00D0EDBCF03F062
:10158000020EDBCF08F0030EDBCF09F0040EDBCF39
:101590000AF0050EDBCF0BF0060EDBCF0CF0070ECA
:1015A000DBCF0DF0080EDBCF0EF0090EDBCF0FF016
:1015B0000CC045F00DC046F00EC047F00FC048F01B
:1015C00008C040F009C041F00AC042F00BC043F02F
:1015D00022EC1BF040C004F041C005F042C006F010
:1015E00043C007F004C045F005C046F006C047F010
:1015F00007C048F000C040F001C041F002C042F016
:1016000003C043F00CEC1CF00E0E40C0DBFF0F0ECD
:1016100041C0DBFF100E42C0DBFF110E43C0DBFFF9
:10162000120EDBCF02F0130EDBCF03F0DE500224EC
:10163000006EDD500320016E00C0E6FF01C0E6FF32
:10164000B60E046E830E056E066A04C0E6FF05C082
:10165000E6FF06C0E6FFF7EC43F0F56E050EE15E2F
:10166000F550060EDBCF02F0070EDBCF03F0080EBD
:10167000DBCF04F0090EDBCF05F00E0EDBCF06F05A
:101680000F0EDBCF07F0100EDBCF08F0110EDBCF13
:1016900009F006C045F007C046F008C047F009C091
:1016A00048F002C040F003C041F004C042F005C061
:1016B00043F023EC1BF041EC1DF041C000F042C0B0
:1016C00001F000C0E6FF01C0E6FFA80E0A6E830E1F
:1016D0000B6E0C6A0AC0E6FF0BC0E6FF0CC0E6FF0B
:1016E000F7EC43F0F56E050EE15EF5500A0EDBCF28
:1016F00002F00B0EDBCF03F00C0EDBCF04F00D0E6F
:10170000DBCF05F0456A466A200E476E410E486EF3
:1017100002C040F003C041F004C042F005C043F0F5
:101720000CEC1CF041EC1DF041C000F042C001F097
:1017300000C0E6FF01C0E6FF940E066E830E076E42
:10174000086A06C0E6FF07C0E6FF08C0E6FFF7EC40
:1017500043F0F56E050EE15EF550020EDBCF02F0B0
:10176000030EDBCF03F0040EDBCF04F0050EDBCF5E
:1017700005F0060EDBCF06F0070EDBCF07F0080EF4
:10178000DBCF08F0090EDBCF09F006C045F007C03B
:1017900046F008C047F009C048F002C040F003C05E
:1017A00041F004C042F005C043F022EC1BF041ECD4
:1017B0001DF041C000F042C001F000C0E6FF01C0D2
:1017C000E6FF800E0A6E830E0B6E0C6A0AC0E6FFFF
:1017D0000BC0E6FF0CC0E6FFF7EC43F0F56E050E1C
:1017E000E15EF550120EDBCF04F0130EDBCF05F0F7
:1017F000DE500424026EDD500520036E02C0E6FFB9
:1018000003C0E6FFB1EC05F0E552E552F3CF00F07E
:10181000F4CF01F000C0E6FF01C0E6FF6C0E066EDB
:10182000830E076E086A06C0E6FF07C0E6FF08C021
:10183000E6FFF7EC43F0F56E050EE15EF550060E9F
:10184000DBCF02F0070EDBCF03F0080EDBCF04F096
:10185000090EDBCF05F00E0EDBCF06F00F0EDBCF4F
:1018600007F0100EDBCF08F0110EDBCF09F006C039
:1018700045F007C046F008C047F009C048F002C074
:1018800040F003C041F004C042F005C043F023EC37
:101890001BF041EC1DF041C000F042C001F000C05F
:1018A000E6FF01C0E6FF120EDBCF0CF0130EDBCF1C
:1018B0000DF0DE500C240A6EDD500D200B6E0AC0B8
:1018C000E6FF0BC0E6FFD2EC05F0E552E552E5522B
:1018D000E552120EDB2A130E01E3DB2A96D5020134
:1018E0005C6BD9CFE1FFE552E7CFD9FF1200D9CF2A
:1018F000E6FFE1CFD9FF140EE1260101370E826F1A
:101900000201010E5C6F5C0501E08CD201018E5179
:10191000DE6EDD6A24C23FF025C240F026C241F0EF
:1019200027C242F009EC1BF0020E40C0DBFF030EA1
:1019300041C0DBFF040E42C0DBFF050E43C0DBFFEE
:10194000FA0EF36E120EF3CFDBFF130EDB68120EEE
:10195000DBCF00F0130EDBCF01F0D890015004E68E
:10196000070E005C000E015801E35AD2120EDBCFC5
:1019700004F0130EDBCF05F0DE500424026EDD50C0
:101980000520036E02C0E6FF03C0E6FFB1EC05F0E0
:10199000E552E552F3CF00F0F4CF01F000C041F082
:1019A00001C042F0F4EC1AF0060E40C0DBFF070E57
:1019B00041C0DBFF080E42C0DBFF090E43C0DBFF66
:1019C000006A016A400E026E3F0E036E00C0E6FF21
:1019D00001C0E6FF02C0E6FF03C0E6FF120EDBCF48
:1019E00041F0130EDBCF42F0F4EC1AF040C00CF0E3
:1019F00041C00DF042C00EF043C00FF00CC0E6FF36
:101A00000DC0E6FF0EC0E6FF0FC0E6FF11DAE5529B
:101A1000E552E552E552E552E7CF03F0E552E7CF54
:101A200002F0E552E7CF01F0E552E7CF00F03FC00A
:101A300008F040C009F041C00AF042C00BF0456A0E
:101A4000466A200E476E410E486E08C040F009C03D
:101A500041F00AC042F00BC043F0B9EC1BF040C0AB
:101A600004F041C005F042C006F043C007F004C0D6
:101A700045F005C046F006C047F007C048F000C07A
:101A800040F001C041F002C042F003C043F022EC3C
:101A90001BF00A0E40C0DBFF0B0E41C0DBFF0C0E3B
:101AA00042C0DBFF0D0E43C0DBFF0A0EDBCF00F0B0
:101AB0000B0EDBCF01F00C0EDBCF02F00D0EDBCFF7
:101AC00003F0020EDBCF08F0030EDBCF09F0040EAB
:101AD000DBCF0AF0050EDBCF0BF0060EDBCF0CF0F0
:101AE000070EDBCF0DF0080EDBCF0EF0090EDBCFBB
:101AF0000FF00CC045F00DC046F00EC047F00FC00F
:101B000048F008C040F009C041F00AC042F00BC0E4
:101B100043F022EC1BF040C004F041C005F042C08D
:101B200006F043C007F004C045F005C046F006C00B
:101B300047F007C048F000C040F001C041F002C0CB
:101B400042F003C043F00CEC1CF00E0E40C0DBFF73
:101B50000F0E41C0DBFF100E42C0DBFF110E43C071
:101B6000DBFF120EDBCF02F0130EDBCF03F0DE50F3
:101B70000224006EDD500320016E00C0E6FF01C0AC
:101B8000E6FFB60E046E830E056E066A04C0E6FF1D
:101B900005C0E6FF06C0E6FFF7EC43F0F56E050E64
:101BA000E15EF550060EDBCF02F0070EDBCF03F04F
:101BB000080EDBCF04F0090EDBCF05F00E0EDBCFF5
:101BC00006F00F0EDBCF07F0100EDBCF08F0110E82
:101BD000DBCF09F006C045F007C046F008C047F06B
:101BE00009C048F002C040F003C041F004C042F018
:101BF00005C043F023EC1BF041EC1DF041C000F0A8
:101C000042C001F000C0E6FF01C0E6FFA80E0A6E68
:101C1000830E0B6E0C6A0AC0E6FF0BC0E6FF0CC019
:101C2000E6FFF7EC43F0F56E050EE15EF5500A0EA7
:101C3000DBCF02F00B0EDBCF03F00C0EDBCF04F09A
:101C40000D0EDBCF05F0456A466A200E476E410E49
:101C5000486E02C040F003C041F004C042F005C02D
:101C600043F00CEC1CF041EC1DF041C000F042C010
:101C700001F000C0E6FF01C0E6FF940E066E830E81
:101C8000076E086A06C0E6FF07C0E6FF08C0E6FF69
:101C9000F7EC43F0F56E050EE15EF550020EDBCF7A
:101CA00002F0030EDBCF03F0040EDBCF04F0050ED1
:101CB000DBCF05F0060EDBCF06F0070EDBCF07F01B
:101CC000080EDBCF08F0090EDBCF09F006C045F0A7
:101CD00007C046F008C047F009C048F002C040F015
:101CE00003C041F004C042F005C043F022EC1BF0F9
:101CF00041EC1DF041C000F042C001F000C0E6FF21
:101D000001C0E6FF800E0A6E830E0B6E0C6A0AC0DD
:101D1000E6FF0BC0E6FF0CC0E6FFF7EC43F0F56E04
:101D2000050EE15EF550120EDBCF04F0130EDBCF93
:101D300005F0DE500424026EDD500520036E02C063
:101D4000E6FF03C0E6FFB1EC05F0E552E552F3CF44
:101D500000F0F4CF01F000C0E6FF01C0E6FF6C0E1A
:101D6000066E830E076E086A06C0E6FF07C0E6FF30
:101D700008C0E6FFF7EC43F0F56E050EE15EF550A6
:101D8000060EDBCF02F0070EDBCF03F0080EDBCF31
:101D900004F0090EDBCF05F00E0EDBCF06F00F0EC0
:101DA000DBCF07F0100EDBCF08F0110EDBCF09F010
:101DB00006C045F007C046F008C047F009C048F02B
:101DC00002C040F003C041F004C042F005C043F03F
:101DD00023EC1BF041EC1DF041C000F042C001F0CB
:101DE00000C0E6FF01C0E6FF120EDBCF0CF0130EC1
:101DF000DBCF0DF0DE500C240A6EDD500D200B6E93
:101E00000AC0E6FF0BC0E6FFD2EC05F0E552E55252
:101E1000E552E552120EDB2A130E01E3DB2A97D5B9
:101E200002015C6BD9CFE1FFE552E7CFD9FF120089
:101E3000D9CFE6FFE1CFD9FFFB0EDBCF00F0FC0EE0
:101E4000DBCF01F0FD0EDBCF02F0FE0EDBCF03F0A7
:101E5000456A466A476A486A00C040F001C041F0DE
:101E600002C042F003C043F070EC1DF0010A2EE105
:101E7000FB0EDBCF04F0FC0EDBCF05F0FD0EDBCF5D
:101E800006F0FE0EDBCF07F0456A466A800E476E0D
:101E9000BF0E486E04C040F005C041F006C042F0DD
:101EA00007C043F00CEC1CF040C000F041C001F052
:101EB00042C002F043C003F000C03FF001C040F058
:101EC00002C041F003C042F016D015D0FB0EDBCFAC
:101ED00000F0FC0EDBCF01F0FD0EDBCF02F0FE0EBA
:101EE000DBCF03F000C03FF001C040F002C041F082
:101EF00003C042F000D0E552E7CFD9FF1200D9CF9E
:101F0000E6FFE1CFD9FF81BE33D0FD0EDBCF00F07D
:101F1000FE0EDBCF01F0026A036A01AE02D0026856
:101F20000368035002012719E8AE02D0273508D014
:101F30002451005C2551015826510258275103585D
:101F400009E324C283F225C284F226C285F227C2A5
:101F500086F20DD0FD0EDBCF83F2FE0EDBCF84F2D6
:101F60000201856B866B84AF02D08569866942D099
:101F700081BC33D0FD0EDBCF00F0FE0EDBCF01F0D5
:101F8000026A036A01AE02D00268036802012751A7
:101F90000318E8AE02D0033408D00050245D01508D
:101FA0002559025026590350275909E324C283F2C8
:101FB00025C284F226C285F227C286F20DD0FD0E1C
:101FC000DBCF83F2FE0EDBCF84F20201856B866BE2
:101FD00084AF02D0856986690DD0FD0EDBCF83F218
:101FE000FE0EDBCF84F20201856B866B84AF02D0DC
:101FF00085698669E552E7CFD9FF12000201836B3C
:10200000846B856B866B0101A2A503D00101A30E31
:10201000896F120083C200F084C201F085C202F011
:1020200086C203F0020E005E000E015A025A035AE5
:10203000035002012719E8AE02D0273508D02451F9
:10204000005C25510158265102582751035820E2BF
:1020500083C204F084C205F085C206F086C207F090
:10206000020E0426000E0522062207222751071819
:10207000E8AE02D0073408D00450245D055025593D
:10208000065026590750275903E2010E03D002D00B
:06209000000E00D012005A
:0A20960087EC15F0FB0EDBCFF3FF23
:1020A000DB06F35000090AE0D5EC15F0FA0E40EC1F
:1020B00016F0F3E1011CF1E1010E01D0000EB6EFC4
:1020C00015F087EC15F03B0EE12402E3E168E652DF
:1020D000E16E010EDB6A020EDB6AF90EDBCFF6FF62
:1020E000FA0EDBCFF7FFFB0EDBCFF8FF0800F55051
:1020F000DF6EDF5002E1DCEF14F0250EDF5C02E062
:10210000CFEF14F0030EDB6A040EDB6A050EDB6A08
:10211000060EDB6A070EDB6AEFEC14F02D0EDF5CB7
:102120000CE02B0EDF5C09E0200EDF5C06E0230EE6
:10213000DF5C03E0300EDF5C1AE1DF50300A14E0B0
:10214000130A0FE0030A0AE00B0A05E0060AE4E1BD
:10215000030EDB80E1D7030EDB82DED7030EDB84C8
:10216000DBD7030EDB86D8D7030EDB88D5D72A0E44
:10217000DF5C1BE1EBEC14F039EC15F010E0030E22
:10218000DB8041684268130EDBCF46F0140EDBCFD4
:1021900047F0EDEC1CF0040E3FC0DBFF03D0130E44
:1021A00022EC15F0EFEC14F00BD0090EDB6A90EC8A
:1021B00015F003E004EC16F0FAD7090E22EC15F046
:1021C000030EDBB0DB982E0EDF5C1BE1EFEC14F0AE
:1021D0002A0EDF5C0BE1EBEC14F039EC15F003E1B7
:1021E000130E74EC15F0EFEC14F00BD0090EDB6A53
:1021F00090EC15F003E004EC16F0FAD7090E74EC3D
:1022000015F0680EDF5C07E1EFEC14F0680EDF5CA0
:102210001DE1030E18D0740EDF5C17E07A0EDF5C50
:1022200014E0480EDF5C06E0540EDF5C03E05A0E5B
:10223000DF5C02E1020E07D06C0EDF5C03E06A0E89
:10224000DF5C04E1010EC7EC15F0C9DBDF506E0A5C
:1022500001E181D31E0A01E192D1200A01E18FD16F
:102260003F0A01E149D11A0A01E146D10D0A01E113
:1022700043D1200A01E140D13A0A01E13DD1200ACF
:1022800001E13AD1260A01E135D10D0A01E132D14D
:102290001A0A01E1D9D0200A4AE0300A1FE0460AB2
:1022A0000EE0250A01E085D3D950F90FE96EFF0E43
:1022B000DA20EA6E010EEE5E000EEE5AEE5AD5EC12
:1022C00015F0250EE66E95DB03E1011C01E16BD3F1
:1022D000D1EC15F001E26DD3DB2A6BD3080EDB6A7B
:1022E000040EDB50010806E2040EDB0499EC15F045
:1022F000DB508BDB080EDB5009E0030EDB50010BDB
:1023000005E172DB01E04FD3080EDB6A64DBEFCF3F
:10231000DFFF49EC16F003E1011C01E144D3D1ECED
:1023200015F001E3DB2A60DB01E143D33CD3070E68
:10233000DB5002080FE115EC16F0030EDCEC15F093
:102340000E0EEECFDBFF0F0EEECFDBFF100EEECF4B
:10235000DBFF20D0F70EDBCF03F0F80EDBCF04F06D
:10236000020E035E000E045AF70E03C0DBFFF80EE8
:1023700004C0DBFF03C0E9FF04C0EAFFCCEC15F0AA
:10238000026A0E0E00C0DBFF0F0E01C0DBFF100E55
:1023900002C0DBFF0E0EDBCFE6FF0F0EDBCFE6FF4A
:1023A000100EDBCFE6FFFDEC44F0E552E552E552BE
:1023B000130E40C0DBFF140E41C0DBFF060EDB50E6
:1023C00005E0130E10EC16F001E26ADB34EC16F0B7
:1023D00002E2130E37DBF7EC15F006E0040E10EC0A
:1023E00016F002E2050E2EDB030EDBB005D0FCDAA0
:1023F00001E0D9D2080EDB6A090EDB6A0E0EDBCFD4
:10240000F6FF0F0EDBCFF7FF100EDBCFF8FF080053
:10241000F550DF6EDF5014E03AEC16F011E249ECB3
:1024200016F003E1011C01E1BED2BBDB01E3DB2AB4
:10243000090EDB2AD9500E0FE96E000ECBDBE7D771
:10244000D3DA01E1B6D2AFD2C6DA110EEECFDBFF9E
:10245000120EEDCFDBFF110EDBCFE6FF120EDBCF4E
:10246000E6FFEFEC44F0E552E552130EF3CFDBFF4D
:10247000140EF4CFDBFF060EDB5004E0130ED0DBAE
:1024800001E20EDB34EC16F002E2130EDBDAAFDB16
:1024900005E0040EC5DB02E2050ED4DA030EDBB064
:1024A00005D0A2DA01E07FD2080EDB6A090EDB6AF2
:1024B000110EDBCFE9FF120EDBCFEAFFEFCFDFFF1C
:1024C000DF5014E0D7DB12E2E4DB03E1011C01E1A1
:1024D0006AD267DB01E3DB2A090EDB2A110EDB2A55
:1024E000DBCFE9FF120EE8E3DB2AE6D77DDA01E174
:1024F00060D259D2030EDB8E070EDB0410E195DBB0
:10250000040E5ADB0A0EEECFDBFF0B0EEECFDBFF25
:102510000C0EEECFDBFF0D0EEECFDBFF6CD0070E07
:10252000DB5003082CE1030EDBAE0DD0B2DA020E55
:1025300076DAEFCF00F0016A026A036A00AE39D0A2
:102540000168026835D0F70EDBCF01F0F80EDBCF63
:1025500002F0020E015E000E025AF70E01C0DBFF10
:10256000F80E02C0DBFF01C0E9FF02C0EAFFEFCFB7
:1025700000F00A0E00C0DBFF0B0EDB6A38D0070E3E
:10258000DB50020809E1030EDBAE04D059DB02AEDA
:1025900010D00ED055DB0DD0030EDBAE12D079DAA1
:1025A000020E3DDAF9DA026A036A01AE02D002686D
:1025B0000368E2DA0C0E02C0DBFF0D0E03C0DBFF86
:1025C0001AD0F70EDBCF02F0F80EDBCF03F0020ECD
:1025D000025E000E035AF70E02C0DBFFF80E03C0C6
:1025E000DBFF02C0E9FF03C0EAFFD6DAC5DA0C0E52
:1025F000DB6A0D0EDB6A060EDB5005E1010EF36EA1
:10260000050EF3CFDBFF150EDB6A160EDB6AD95021
:10261000370F006E000EDA20016E390E00C0DBFFAE
:102620003A0E01C0DBFF380EDB6A080EDB6A0A0EC9
:10263000AEDADF50780A12E0200A10E0280A0CE037
:10264000200A0AE03F0A06E00D0A02E0200A08E13B
:10265000020E05D0080E03D0080EDF26100E97DA02
:10266000030EDBBE02D0DB92DB94DB50800B26E056
:102670008ADA030EEB50000AE8AE02D0D89008D0F8
:10268000000EEE5C000EEE58000EEE58000EEE58F6
:1026900015E211DA446845684668476883EC44F0FF
:1026A0000A0E3BC0DBFF0B0E3CC0DBFF0C0E3DC037
:1026B000DBFF0D0E3EC0DBFF2D0E08D0030EDBA2AC
:1026C00002D02B0E03D0DBA408D0200EF36E170E21
:1026D000F3CFDBFF150EDB2A02D0170EDB6A050EE7
:1026E000DB5003E1B5D901E189D09E0E006E8D0E5D
:1026F000016E000E026E070EDBCF03F0046A056A5E
:10270000066A03C044F004C045F005C046F006C0A8
:1027100047F0D1D909EC46F000503B24F36E01504C
:102720003C20F46E02503D20F86EF4CFF7FFF3CF5B
:10273000F6FF0800090EF5CFDBFF580EDF5C0FE156
:10274000610EF36E090E79D90AE3200E006E090EB0
:10275000DBCFE7FF0050E75E090EE7CFDBFF070E98
:10276000DBCF00F0016A026A036A0DDA00C044F0B0
:1027700001C045F002C046F003C047F0EECF3FF085
:10278000EECF40F0EECF41F0EFCF42F009EC46F053
:1027900042C0EDFF41C0EDFF40C0EDFF3FC0EFFF85
:1027A000390EDBCFE9FFDB063A0EDBCFEAFF01E2B1
:1027B000DB06090EDBCFEFFF150EDB2A49D995E1C9
:1027C000030EDBA61DD06F0EDF5C06E1BFD918E358
:1027D000150EDB2859DA14D0780EDF5C09E0580EAC
:1027E000DF5C06E0620EDF5C03E0420EDF5C08E1C6
:1027F000020EF36E160EF3CFDBFF02D0150EDB6A6E
:10280000030EDB50100B0EE0040EDBCF00F0050EC4
:10281000DB50D880005406E2060EDB5003E1040EC4
:10282000DB5032DA93D90AE2050EDBCFE7FF150E53
:10283000DB50E75E050EE7CFDBFF02D0050EDB6A5B
:10284000040EDBCF00F0160E43D9D880005414E2FA
:10285000160EDBCFE6FF150EDBCFE6FF040EDBCF57
:10286000E6FF050EDB50E552E75CE552D880E75401
:10287000E552D880E7545DD9030EDB50010B0BE124
:10288000080EDB5008E0B0D801E08DD0080EDB5018
:10289000BCD8080EDB6A170EDB5007E086D9170E8E
:1028A000EFD903E1011C01E17ED0160EDB5016E0EA
:1028B0007CD9300EE66E9DD802E1011C74E075D91A
:1028C000DFCFE6FF41EC44F0E552E552E552F4CFAC
:1028D00001F00001F31C02E1011C65E0050EDBCFF5
:1028E00000F0160EDB50D880005409E2050EDBCF55
:1028F000E7FF160EDB50E75E050EE7CFDBFF300E7D
:10290000E66E050EC9D94FE1390EDB2ADBCFE9FFB0
:102910003A0E01E3DB2ADBCFEAFF090EEFCFDBFF44
:10292000DB500EE042D9090EABD902E1011C3BE0BD
:10293000390EDB2ADBCFE9FF3A0EEDE3DB2AEBD7DA
:1029400053D831E1160EDBCFE6FF080EC1D8E552B1
:10295000E7245BD82ED0070EDB50030A1CE0010AE7
:1029600014E0030A07E079D9DBCFEEFF020EDBCFDC
:10297000EDFF1FD0F3D8056A03AE02D004680568E6
:102980002AD8BAD805C0EEFF14D0E8D803BE046830
:1029900022D8B2D80ED061D9DBCFEFFF0AD079D9D7
:1029A00005E1011C03E1F368F46810D0FAD801E3F3
:1029B000DB2A77D976EF10F0010EDBCF00F0020EA4
:1029C000DBCF01F000C0F3FF01C0F4FFD9CFE1FF7E
:1029D000DACFE2FFCBD029D9020EDCEF15F061D9B6
:1029E0000800F550DF6E1200200EE66E080E4CEF68
:1029F00016F041EC44F0E552E552E552F3CF00F019
:102A0000F4CF01F00001F31C1200006E016AD950EE
:102A1000010F4DD90050EE260150ED221200045E48
:102A2000000E055AF70E04C0DBFFF80E05C0DBFFF1
:102A300004C0E9FF05C0EAFF1200DBCFF4FFF3504A
:102A4000F45C1200DB50E76E040EE7CFDBFF1200F0
:102A50000A0EDBCF00F00B0EDBCF01F00C0EDBCF4C
:102A600002F00D0EDBCF03F0005001100210031036
:102A70001200130EEECFDBFF140EEDCFDBFF130EB3
:102A8000DBCF00F0140EDBCF01F00001800E01144B
:102A90001200F70EDBCF04F0F80EDBCF05F01200CA
:102AA000050EDB50E66ED950130F01D9E552E75001
:102AB000EE6EED6A12000A0EDBCF3FF00B0EDBCF9D
:102AC00040F00C0EDBCF41F00D0EDBCF42F01200D8
:102AD000DBCFE6FF150EDBCFE6FF050EDB50E55240
:102AE000E724E552E7241200DB50CED8010EF36E46
:102AF000060EF3CFDBFF1200EE50EFCFEAFFE96ED8
:102B000002C0EEFF03C0EEFF04C0EEFF1200D9CFFB
:102B1000E6FFDACFE6FFE1CFD9FFE2CFDAFF12001E
:102B2000DFCFE6FFE66A76EC46F0E552E552F35079
:102B30001200E76E080EE7CFDBFF1200EECF00F0C9
:102B4000EECF01F0EFCF02F0036A1200050EDBCFEB
:102B500000F0150EDB50D88000541200010EDBCFC0
:102B600002F0020EDBCF03F0046A1200E552E5CF5B
:102B7000DAFFE7CFD9FF12000A0E00C0DBFF0B0E11
:102B800001C0DBFF1200D9500A0F57EF16F0F36EA9
:102B9000070EF3CFDBFF1200EECF00F0EFCF01F016
:102BA0001200010EDB2A020E1200FC0EDBCFE6FF44
:102BB000FD0EDBCFE6FF1200005E000E015AF70E9D
:102BC00000C0DBFFF80E01C0DBFF00C0E9FF01C061
:102BD000EAFF1200DA20EA6EEF2AEECFF6FF000ECF
:102BE000EF22EECFF7FFEF22EECFF8FF1200040E38
:102BF000DBCFE6FF130EDB50E552E75C9ADFDB50DC
:102C000004DF060EDB501200090EDB500A0DF350F4
:102C1000DF24D00FE76E090EE7CFDBFFEFEF14F0F4
:102C2000DB50F36E050E1DEF15F0F70EDBCF00F055
:102C3000F80EDBCF01F01200DFCFE6FFF9EF14F062
:102C400028DF030EECDE9EEF15F04BEC10F0E552A2
:102C5000E552E552E55200091200BDDEEE50EFCF1D
:102C6000EAFFE96E010E1200130EDB50F36E040E44
:102C70001DEF15F0040EDB50F36E090E1DEF15F07D
:102C8000DBCFE6FFF9EF14F0E76E050EE7CFDBFFD1
:102C900012008BDF1CEF16F0DBCFE6FF86DF25EF9F
:102CA00016F0D950F90FE96EFF0EEAEF15F0E96E54
:082CB000000EDA20EA6E1200AA
:082CB80002013E693C6B3D6B1B
:102CC000366B376B386B396B3A6B2D6B2E6B2F6B0A
:102CD000306B010E316F326B336F346B356B3B6B86
:102CE0000101730E8F6FAD0E8E6F58EC04F0E9EF9B
:102CF0003EF065EC25F0000903E00101809502D06B
:102D00000101808587A602D0809301D0808394EC56
:102D10001EF0F3CF00F0F4CF01F00050011007E0F7
:102D20000AEC10F0000903E00101809102D00101DA
:102D3000808102013151321107E181AC05D00201DD
:102D4000246B256B266B276B8150400B01E0010E35
:102D50000201316F326B3351341108E181AE06D07C
:102D600002018E0E246F256B266B276B8150800B22
:102D700001E0010E0201336F346B12003DEC22F0D2
:102D8000DBEF2CF0D9CFE6FFE1CFD9FFE652DF6AC7
:102D900082A0DF2A88B802D0020EDF2688BA02D0CD
:102DA000040EDF2688B406D0010EE66E98EC40F0E3
:102DB000E5520DD088B606D0030EE66E98EC40F0D2
:102DC000E55205D0020EE66E98EC40F0E552E55271
:102DD000E552E7CFD9FF12000101A2A902D0D4EC3D
:102DE00024F0020135511CE1780EE66EEC0EE66E21
:102DF0007FEC0FF0E552E55269EC04F081BC0FD096
:102E00000201010E356F0201246B256B266B276BC7
:102E1000000EE66EE66A7FEC0FF0E552E5520AD04E
:102E2000ADDF0101A2A705D095EC06F069EC04F036
:102E300001D087DA0101A3A303D0ADEC09F009D0DA
:102E4000A3A703D0E6EC06F004D0A3A502D077EC4C
:102E50000CF00101A2BD02D0F1D804D001017F0E17
:102E6000856F846F0101AE51006E016A013404E286
:102E70000050C808000E015403E2E66824DBE55266
:102E80000101B251006E016A013404E20050C80829
:102E9000000E015404E2010EE66E15DBE552F5DA90
:102EA0000101A2A503D00101896903D001017F0EB0
:102EB000896F0101A3A103D00201010E3A6F020143
:102EC0003A512AE094EC1EF0F3CF00F0F4CF01F079
:102ED0000050011021E10101AD51006E016A013481
:102EE00004E20050B108000E015410E34D0EAD5D38
:102EF0000DE3A951026E036A033404E20250B108E3
:102F0000000E035403E34D0EA95D03E202013A6B88
:102F100002D006EC21F00BD094EC1EF0F3CF00F0C1
:102F2000F4CF01F00050011002E002013A6B24C21C
:102F30003FF025C240F026C241F027C242F0446A69
:102F4000010E456E466A476AB9EC1CF03BC082F13F
:102F500024C23FF025C240F026C241F027C242F011
:102F6000446A010E456E466A476AB9EC1CF03FC0E0
:102F700083F183C23FF084C240F085C241F086C233
:102F800042F0446A010E456E466A476AB9EC1CF08D
:102F90003BC09AF183C23FF084C240F085C241F049
:102FA00086C242F0446A010E456E466A476AB9EC31
:102FB0001CF03FC09BF10101A251020B06E0A2519F
:102FC000200B03E101018A6908D0A2AB03D0010103
:102FD0008A6B03D001017F0E8A6FF7EC3EF001018E
:102FE000A2A104D0FEEC0FF069EC04F082DE010136
:102FF000A3AB10D00201373504E236510F08000EA2
:10300000375505E2366B376BF2EC05F003D0362B03
:10301000000E37230101A3A90ED00201373504E2C7
:1030200036510F08000E375503E2366B376B03D06D
:10303000362B000E372335C282F11200D9CFE6FFBE
:10304000E1CFD9FFE652DF6A0101A3A90FD0A95150
:1030500002012D6F2E6B0101A95102012F6F306B00
:10306000FF0ED8802F57000E30571CD1046A056A16
:10307000066A3F0E076EA9C142F0E1EC1AF040C0AB
:1030800008F041C009F042C00AF043C00BF008C08C
:1030900045F009C046F00AC047F00BC048F004C034
:1030A00040F005C041F006C042F007C043F00CEC10
:1030B0001CF040C000F041C001F042C002F043C02B
:1030C00003F0106A116A126A3F0E136E186A196AC9
:1030D0007F0E1A6E430E1B6EADC142F0E1EC1AF08A
:1030E00040C01CF041C01DF042C01EF043C01FF0A4
:1030F0001CC045F01DC046F01EC047F01FC048F080
:1031000018C040F019C041F01AC042F01BC043F093
:1031100022EC1BF040C014F041C015F042C016F084
:1031200043C017F014C045F015C046F016C047F074
:1031300017C048F010C040F011C041F012C042F07A
:1031400013C043F00CEC1CF040C00CF041C00DF07B
:1031500042C00EF043C00FF00CC045F00DC046F069
:103160000EC047F00FC048F000C040F001C041F071
:1031700002C042F003C043F023EC1BF041EC1DF011
:1031800041C02DF242C02EF2006A016A7F0E026E2B
:10319000430E036E0C6A0D6A0E6A3F0E0F6EA9C1D4
:1031A00042F0E1EC1AF040C010F041C011F042C012
:1031B00012F043C013F010C045F011C046F012C029
:1031C00047F013C048F00CC040F00DC041F00EC0F5
:1031D00042F00FC043F00CEC1CF040C008F041C0BE
:1031E00009F042C00AF043C00BF0186A196A1A6A63
:1031F0003F0E1B6EADC142F0E1EC1AF040C01CF076
:1032000041C01DF042C01EF043C01FF01CC045F07D
:103210001DC046F01EC047F01FC048F018C040F067
:1032200019C041F01AC042F01BC043F00CEC1CF076
:1032300040C014F041C015F042C016F043C017F072
:1032400014C045F015C046F016C047F017C048F04E
:1032500008C040F009C041F00AC042F00BC043F082
:1032600023EC1BF040C004F041C005F042C006F062
:1032700043C007F004C045F005C046F006C047F063
:1032800007C048F000C040F001C041F002C042F069
:1032900003C043F022EC1BF041EC1DF041C02FF2C3
:1032A00042C030F202012E3504E22D51FF08000E1B
:1032B0002E5502E22D692E6B303504E22F51FF08A6
:1032C000000E305502E22F69306B2E3504E22D518D
:1032D0008908000E2E5509E3750E2EAF02D0D89046
:1032E00003D02D5D000E2E5903E22DC285F103D0CF
:1032F00001017F0E856F0201303504E22F518908EC
:10330000000E305509E3750E30AF02D0D89003D0CF
:103310002F5D000E305903E22FC284F103D001016A
:103320007F0E846F0101A2AF07D085C1DFFF84C18A
:1033300085F1DFCF84F100D0E552E552E7CFD9FF28
:103340001200280E0101A65D11E281AC03D001013B
:10335000876903D001017F0E876F24C2E6FF25C273
:10336000E6FF7FEC0FF0E552E5528ED0A651006EDD
:10337000016A013404E20050E608000E015411E233
:1033800081AE03D00101876B03D001017F0E876FEF
:1033900024C2E6FF25C2E6FF7FEC0FF0E552E552BE
:1033A00073D0280EA65D0E6E0EC042F0E1EC1AF04E
:1033B00040C00AF041C00BF042C00CF043C00DF019
:1033C000456A466A400E476E3F0E486E0AC040F09E
:1033D0000BC041F00CC042F00DC043F00CEC1CF0EF
:1033E00040C006F041C007F042C008F043C009F0F9
:1033F000456A466A700E476E410E486E06C040F040
:1034000007C041F008C042F009C043F022EC1BF0B5
:1034100040C002F041C003F042C004F043C005F0D8
:10342000040E136E13C047F0AAC142F0B6EC46F08A
:10343000E1EC1AF040C00FF041C010F042C011F0B2
:1034400043C012F00FC045F010C046F011C047F065
:1034500012C048F002C040F003C041F004C042F086
:1034600005C043F023EC1BF041EC1DF041C000F01F
:1034700042C001F000C0E6FF01C0E6FF7FEC0FF0A4
:10348000E552E55269EC04F0120002013C513D1195
:1034900001E118D03E050AE101019F0E846F84C14D
:1034A00085F102013C07000E3D5B0CD0FF0E3E5D36
:1034B00009E101015F0E846F84C185F102013C07BF
:1034C000000E3D5B1200D9CFE6FFE1CFD9FF020E1F
:1034D00002013C6F3D6BFE0EDBCF3EF2E552E7CFC3
:1034E000D9FF1200D9CFE6FFE1CFD9FFE6520101A3
:1034F000A951006E016A013404E20050CD08000EAB
:10350000015403E2CD0EDF6E08D0320EA95D03E256
:10351000320EDF6E02D0A9C1DFFF06EC21F0DFCF53
:1035200000F0016A00BE0168D890015004E6890EDF
:10353000005C000E01581AE3020E006E00C047F056
:10354000DFCF42F079EC1CF0425001018525C10F1C
:10355000856F020E006E00C047F0DFCF42F079ECBD
:103560001CF042500101845D3F0F846FDFCF00F0FB
:10357000750EE76E0018E8AE02D0E73402D0E750CF
:10358000005C1AE2020E006E00C047F0DFCF42F08E
:1035900079EC1CF0425001018525810F856F020EE8
:1035A000006E00C047F0DFCF42F079EC1CF04250D3
:1035B0000101845D7F0F846FE552E552E7CFD9FFAB
:0235C0001200F7
:0E35C2004A9E05D04A9E42AE02D0426C4A8E0E
:1035D00042C03CF03B6A4E6A4D6A860E3D6E3E6AC2
:1035E000EAEF1DF04A9E08D04A9E42AE05D0416CDB
:1035F000421EE86A42224A8E42C03CF041C03BF083
:103600004E6A4D6A8E0E3D6E3E6AEAEF1DF04A9E8E
:103610000CD04A9E42AE09D03F6C401E411E421E55
:10362000E86A4022412242224A8E42C03CF041C018
:103630003BF040C04EF03FC04DF09E0E3D6E3E6AE6
:10364000EAEF1DF0487E4A6A26EC1EF03EEC1EF0C2
:103650004AB6CEEF1DF04AA20AD04AAA03D04ABE0B
:10366000CEEF1DF04AA4DAEF1DF0D7EF1DF04AAA05
:1036700005D04AACDAEF1DF0D7EF1DF04AA00AD012
:103680004AA808D04ABE04D04AA402D0E3EF1DF0F5
:10369000E7EF1DF04D6A3E6A4850435C4C6E10E304
:1036A00040C04EF041C03BF042C03CF043C04BF044
:1036B00045C040F046C041F047C042F04A3A09D008
:1036C00045C04EF046C03BF047C03CF048C04BF010
:1036D0004C6C4A9E4ABC4A8E4BC03DF04AB016EF35
:1036E0001EF01A0E4C6016EF1EF03D6A436A4AA4A3
:1036F00008D0406C411E421E431EE86A412242220D
:1037000043224AAC08D04E6C3B1E3C1E3D1EE86A6C
:103710003B223C223D223F6A4C5207E04334423276
:10372000413240323F324C2EF9D740504E26415064
:103730003B2242503C2243503D223FC04DF04A9E26
:103740003DAE0BD04D6C4E1E3B1E3C1E3D1EE86A2E
:103750004E223B223C223D224A8E3DA006D0D880FC
:103760003C323B324E324D324B2A4BC03DF0EAEFF9
:103770001DF04A6A26EC1EF03EEC1EF04AB6CEEF73
:103780001DF04AA205D04ABACEEF1DF0D5EF1DF0CC
:103790004ABAE1EF1DF04AA005D04AB8CEEF1DF0BD
:1037A000E1EF1DF04AB8D5EF1DF03E6A7F0E4324CD
:1037B0003D6EE86A3E2248503D5EE86A3E5A1A0E67
:1037C0004B6E436A4D6A4E6A3B6A3C6A4550405EA6
:1037D0004650415A4750425A000E435A09E7455055
:1037E00040264650412247504222000E432201D03B
:1037F0004D8AD8904036413642364336D8904D36C1
:103800004E363B363C364B2EE1D7425041104010ED
:10381000D8A44D8AEAEF1DF04A6A26EC1EF03EEC71
:103820001EF04AB6CEEF1DF04AA205D04AB8CEEF40
:103830001DF0D5EF1DF04AAA05D04AB0CEEF1DF01D
:10384000D5EF1DF04AB002D04AA802D0E1EF1DF03A
:103850003E6A485043243D6EE86A3E227E0E3D5E3D
:10386000E86A3E5A4D6A4E6A3B6A3C6A47504202D9
:10387000F4CF3CF0F3CF3BF046504202F3504E26DB
:10388000F4503B22000E3C2247504102F3504E269A
:10389000F4503B22000E3C2245504202F3504D268C
:1038A000F4504E22000E3B223C2246504102F3507F
:1038B0004D26F4504E22000E3B223C22475040023F
:1038C000F3504D26F4504E22000E3B223C22455030
:1038D0004102F4504D26000E4E223B223C2246501F
:1038E0004002F4504D26000E4E223B223C22EAEFCD
:1038F0001DF0496A47AE7FEF1CF0476C491E42AE8F
:1039000084EF1CF0426C491EB6EC46F042BE8EEFCE
:103910001CF049AE000C426C3E6C000C49BE8BEFB3
:103920001CF04A88FF0C496A47AE9CEF1CF0466CBD
:10393000471EE86A4722491E42AEA4EF1CF0416CC4
:10394000421EE86A4222491E4CEC46F042BEB4EFE9
:103950001CF049AE000C416C421EE86A42223D6CEC
:103960003E1EE86A3E22000C49BEABEF1CF04A88BE
:10397000FF0C496AE86A47AEC6EF1CF0446C451E6E
:10398000461E471E452246224722491E42AED1EF1F
:103990001CF03F6C401E411E421E4022412242222A
:1039A000491E09EC46F042BEE8EF1CF049AE000C9F
:1039B0003F6C401E411E421EE86A402241224222C4
:1039C0003B6C3C1E3D1E3E1E3C223D223E22000C16
:1039D00049BED8EF1CF04A88FF0C42C04EF041C0EF
:1039E0004DF041504602F4CF40F0F3CF3FF042504B
:1039F0004702F4CF42F0F3CF41F04602F3504026A5
:103A0000F4504122E86A42224D504702F3504026CA
:103A1000F4504122E86A422247AE13EF1DF04D50A8
:103A2000415E4E50425A4EAE000C4650415E4750E9
:103A3000425A000C4A6A26EC1EF04AB624EF1DF0EA
:103A40004AA20AD04AB403D07F0E426E19D0800E2B
:103A5000426E16D0426A14D04AB0FCD7870E43603B
:103A6000F1D77E0E4364F6D7860E435C04E0D8900F
:103A70004232432AF9D74AA403D0426C42AEEAD775
:103A800012004A6A26EC1EF04AB64BEF1DF04AA21D
:103A90000ED04AB405D07F0E426EFF0E416E1FD08D
:103AA000800E426E416A1BD0426A416A18D04AB009
:103AB000FBD78F0E4360EDD77E0E4364F5D78E0E95
:103AC000435C05E0D89042324132432AF8D74AA4F9
:103AD00006D0416C421EE86A422242AEE5D712008F
:103AE00079EC1DF04AB6000C4AB0000C4AA4000C58
:103AF000010C4A6A26EC1EF03EEC1EF04AB612009B
:103B00004AAE08D04AA004D04AA802D04A80120087
:103B10004A9012004850435C0BE14750425C08E178
:103B20004650415C05E14550405C02E14A8012008C
:103B3000D8A002D04A8E10D0435048C043F0486EFF
:103B4000425047C042F0476E415046C041F0466E79
:103B5000405045C040F0456E4850435C10E0FF0FB8
:103B600009E04A904AB403D04AAE4A8412004AAEF1
:103B70004A941200482AD89047324632453245507E
:103B8000405E4650415A4750425A42BEEAD7D8900A
:103B9000403641364236432EF8D7C8D77F0E436EA3
:103BA000FF0E426E416E406E12007F0E4ABEFF0E47
:103BB000436E02D07F0E436E800E426E416A406AB1
:103BC000F3D74AAE04D0800E436E426AF7D7436AF9
:103BD000426AF4D73C503B104E104D10F8E03EBE08
:103BE000F0D73CBE0CD03D503E10EBE0D8904D36A7
:103BF0004E363B363C363D06D8A03E06F2D73E5008
:103C0000D4E13D28D2E04DAE11D07F0E4D1402E13B
:103C10004EA00CD04E2AE86A3B223C2207E3D88013
:103C20003C323B324E323D2A3D28BFE03D50C9E098
:103C30004EC040F03BC041F03C34426E3D30436EDC
:103C40004232439E4ABE438ED4EF1DF04236433685
:103C500002E34A844A7E06E14A80436A426A416A34
:103C6000406A1200432803E0D88042321200D89004
:103C7000423202E14A8212004A8612004736483632
:103C800002E34A8C4A7E06E14A88486A476A466AE5
:103C9000456A1200482803E0D88047321200D890C5
:103CA0004732EAE14A8A120079EC1DF04AB6000C6C
:103CB0004AB0000C4AB4000C010C4A6A26EC1EF013
:103CC0004AB667EF1EF04AA20FD04AB407D07F0E63
:103CD000426EFF0E416E406E3F6E25D0800E426EEA
:103CE00001D0426A000EF6D74AB0FBD73F6A9F0E5A
:103CF0004360EBD77E0E4364F4D79E0E435C07E02F
:103D0000D8904232413240323F32432AF6D74AA459
:103D10000AD03F6C401E411E421EE86A40224122EA
:083D2000422242AEDED7120080
:083D2800D9CFE6FFE1CFD9FF7E
:103D3000020EE12601018F51006E016A730E005ED2
:103D4000000E015A00C0DEFF01C0DDFFDECF00F033
:103D5000DDCF01F00001800E01140CE041684268E3
:103D6000DECF46F0DDCF47F0EDEC1CF03FC0DEFFCC
:103D700040C0DDFFDECF00F0DDCF01F0D890015074
:103D800004E6070E005C000E015809E265EC25F020
:103D9000010805E1010EF36EF46A04D003D0F36A62
:103DA000F46A00D0D9CFE1FFE552E7CFD9FF120086
:103DB000D9CFE6FFE1CFD9FF040EE126006A016A00
:103DC000600E026E410E036E086A096A600E0A6E8A
:103DD000410E0B6E106A116A800E126E3F0E136E4A
:103DE000B6C142F0E1EC1AF040C020F041C021F031
:103DF00042C022F043C023F0710E456E3D0E466E68
:103E00007A0E476E410E486E20C040F021C041F04E
:103E100022C042F023C043F00CEC1CF040C01CF068
:103E200041C01DF042C01EF043C01FF0456A466A03
:103E3000800E476E430E486E1CC040F01DC041F01E
:103E40001EC042F01FC043F0B9EC1BF040C018F098
:103E500041C019F042C01AF043C01BF0CD0E456EB0
:103E6000CC0E466E5C0E476E410E486E18C040F098
:103E700019C041F01AC042F01BC043F0B9EC1BF06E
:103E800040C014F041C015F042C016F043C017F016
:103E900014C045F015C046F016C047F017C048F0F2
:103EA00010C040F011C041F012C042F013C043F006
:103EB00022EC1BF040C00CF041C00DF042C00EF0EF
:103EC00043C00FF00CC045F00DC046F00EC047F0E7
:103ED0000FC048F008C040F009C041F00AC042F0ED
:103EE0000BC043F00CEC1CF040C004F041C005F0E6
:103EF00042C006F043C007F004C045F005C046F0DC
:103F000006C047F007C048F000C040F001C041F0D3
:103F100002C042F003C043F023EC1BF040C0DEFFC0
:103F200041C0DEFF42C0DEFF43C0DDFFDD52DD5297
:103F3000FD0EDBCF41F0FE0EDBCF42F0F4EC1AF0C9
:103F400040C006F041C007F042C008F043C009F08D
:103F5000456A466A800E476E400E486E06C040F0C5
:103F600007C041F008C042F009C043F0B9EC1BF0B3
:103F700040C002F041C003F042C004F043C005F06D
:103F8000D9CFE9FFDACFEAFFEECF0AF0EECF0BF0A0
:103F9000EECF0CF0EFCF0DF00AC045F00BC046F0AD
:103FA0000CC047F00DC048F002C040F003C041F023
:103FB00004C042F005C043F023EC1BF041EC1DF0BF
:103FC00041C000F042C001F000C0F3FF01C0F4FFA7
:103FD00000D0D9CFE1FFE552E7CFD9FF1200D9CF0A
:103FE000E6FFE1CFD9FF040EE126006A016AB00EB8
:103FF000026E410E036E086A096AB00E0A6E410E27
:104000000B6E106A116A800E126E3F0E136EB6C1EF
:1040100042F0E1EC1AF040C020F041C021F042C073
:1040200022F043C023F0710E456E3D0E466E7A0EAF
:10403000476E410E486E20C040F021C041F022C0C2
:1040400042F023C043F00CEC1CF040C01CF041C017
:104050001DF042C01EF043C01FF0456A466A800E44
:10406000476E430E486E1CC040F01DC041F01EC09C
:1040700042F01FC043F0B9EC1BF040C018F041C043
:1040800019F042C01AF043C01BF0CD0E456ECC0EA5
:10409000466E5C0E476E410E486E18C040F019C067
:1040A00041F01AC042F01BC043F0B9EC1BF040C015
:1040B00014F041C015F042C016F043C017F014C010
:1040C00045F015C046F016C047F017C048F010C0C4
:1040D00040F011C041F012C042F013C043F022EC96
:1040E0001BF040C00CF041C00DF042C00EF043C0C8
:1040F0000FF00CC045F00DC046F00EC047F00FC0E9
:1041000048F008C040F009C041F00AC042F00BC0BE
:1041100043F00CEC1CF040C004F041C005F042C07C
:1041200006F043C007F004C045F005C046F006C0E5
:1041300047F007C048F000C040F001C041F002C0A5
:1041400042F003C043F023EC1BF040C0DEFF41C04F
:10415000DEFF42C0DEFF43C0DDFFDD52DD52FD0E5B
:10416000DBCF41F0FE0EDBCF42F0F4EC1AF040C0A2
:1041700006F041C007F042C008F043C009F0456AAC
:10418000466A800E476E400E486E06C040F007C07B
:1041900041F008C042F009C043F0B9EC1BF040C048
:1041A00002F041C003F042C004F043C005F0D9CF93
:1041B000E9FFDACFEAFFEECF0AF0EECF0BF0EECF59
:1041C0000CF0EFCF0DF00AC045F00BC046F00CC06C
:1041D00047F00DC048F002C040F003C041F004C0F9
:1041E00042F005C043F023EC1BF041EC1DF041C050
:1041F00000F042C001F000C0F3FF01C0F4FF00D0A6
:10420000D9CFE1FFE552E7CFD9FF1200D9CFE6FFC2
:10421000E1CFD9FF060EE126030EE66EE66AF1EC69
:104220002FF0E552E5523DEC22F0E66ED950040F36
:10423000E96EDACFEAFFE552E750EE6EED6ADBECAD
:104240002CF0D950040FE96EDACFEAFFEE50ED10F2
:1042500001E009D10101C15101E100D1730E010159
:104260008F5DDE6EDD6A0101C151006E016A4F0E85
:10427000005E000E015A020E00C0DBFF030E01C0FB
:10428000DBFF020EDBCF00F0030EDBCF01F00001FD
:10429000800E011410E041684268020EDBCF46F048
:1042A000030EDBCF47F0EDEC1CF0020E3FC0DBFF4E
:1042B000030E40C0DBFF730E01018F5D6AE2020E48
:1042C000DBCF00F0030EDBCF01F0D890015004E605
:1042D000040E005C000E01582DE2730ED8808F553D
:1042E000070827E2730ED8808F55E66EE66A60DD18
:1042F000E552E552F3CF00F0F4CF01F07F0ED88005
:104300000056000E015600C085F1730E0101D880E1
:104310008F55E66EE66A4CDDE552E552F3CF00F0CC
:10432000F4CF01F07F0ED8800056000E015600C079
:1043300084F12ED0050E8F5D28E2730ED8808F5544
:10434000E66EE66A35DDE552E552F3CF00F0F4CFD4
:1043500001F07F0ED8800056000E015600C085F196
:10436000730E0101D8808F55E66EE66A21DDE552B5
:10437000E552F3CF00F0F4CF01F07F0ED880005665
:10438000000E015600C084F103D07F0E856F846F4C
:1043900064D08F5173085EE2020EDBCF00F0030E93
:1043A000DBCF01F0D890015004E6040E005C000E53
:1043B000015823E2730E8F5D07081EE2730E8F5DB6
:1043C000E66EE66A0CDEE552E552F3CF00F0F4CF7C
:1043D00001F07F0E00240101856F730E8F5DE66E84
:1043E000E66AFDDDE552E552F3CF00F0F4CF01F0CF
:1043F0007F0E00240101846F2CD08F51006E016A62
:10440000013404E20050FA08000E01541FE2730E5A
:104410008F5DE66EE66AE3DDE552E552F3CF00F02C
:10442000F4CF01F07F0E00240101856F730E8F5DC4
:10443000E66EE66AD4DDE552E552F3CF00F0F4CF44
:1044400001F07F0E00240101846F03D07F0E856F81
:10445000846F03D07F0E856F846F04D001017F0EBF
:10446000856F846F04D001017F0E856F846FD9CF73
:0A447000E1FFE552E7CFD9FF12008B
:06447A00D9CFE6FFE1CFFF
:10448000D9FF040EE12602014E510FE1F7D8DF6E8D
:10449000DF0406E10201010E4E6F0101808705D0A5
:1044A000DF50010802E201018097DADAE76E010EBF
:1044B000E7CFDBFFDB50000817E2030EDB6A010EDB
:1044C000DB50F36E030EDBCFF4FFF350F45C0CE231
:1044D000CBDAE76E020EE7CFDBFFDBCFE6FF0DD8CE
:1044E000E552030EDB2AEBD7010EDB5000D0D9CF0B
:1044F000E1FFE552E7CFD9FF1200D9CFE6FFE1CFC8
:10450000D9FF02015551060A01E18FD0030A68E084
:10451000060A34E0010A25E0030A01E0ABD0FE0EF2
:10452000DB50006E016AFF0E001801E1015003E14B
:10453000020E556F15D0FE0EDB50410807E1010158
:10454000020EEC6F0201050E556F0AD0FE0EDB5015
:104550004E0806E10101020EEC6F0201060E556FD6
:1045600089D0FE0EDB50540806E10101EB6B02011D
:10457000030E556F02D0010E556F7CD00101EB5137
:10458000006E016A080E005C000E01580AE2EB5151
:10459000EA6AC90FE96E010EEA22FE0EDBCFEFFFD9
:1045A000EB2BEB51006E016A080E001801E101507F
:1045B00016E1C9C1C1F1CAC1C2F1CBC1C3F1CCC1BD
:1045C000C4F1CDC1C5F1CEC1C6F1CFC1C7F1D0C1D3
:1045D000C8F102014F2B000E5023010E556F4AD037
:1045E000020E0101EC5D06E1FE0EDB50430802E124
:1045F000EC2B1AD0030EEC5D06E1FE0EDB504B08EF
:1046000002E1EC2B11D0040EEC5D0BE1FE0EDB5051
:104610000D0807E10201512B000E5223010E556FC8
:1046200003D00201010E556F25D0020E0101EC5D91
:1046300006E1FE0EDB50430802E1EC2B1AD0030E1C
:10464000EC5D06E1FE0EDB504B0802E1EC2B11D0D5
:10465000040EEC5D0BE1FE0EDB500D0807E10201DC
:10466000532B000E5423010E556F03D00201010E8F
:10467000556F00D0E552E7CFD9FF1200D9CFE6FF42
:10468000E1CFD9FFE6520201560507E188D9050EB0
:10469000E66E91D9E5520201566B57050DE1576B55
:1046A0000101EE6B010EED6FEF6BF06BF16B020130
:1046B000516B526B536B546B0101EE0529E1020102
:1046C000010E515D000E525905E30101EE6BEF6BD7
:1046D000F06B1DD0010E535D000E545904E301012F
:1046E000ED05F16F14D001010A0EEF5D000EF059D7
:1046F0000BE3800EED25006E016A000E012200061C
:10470000015A00C0F1F103D0EF2B000EF02307D1C6
:104710000201516B526B536B546B0101ED51120A44
:1047200001E1FAD0030A01E1E2D0010A01E1D5D0AA
:104730001F0A01E1C5D0010A01E1B6D0030A01E177
:10474000A6D0010A01E196D0070A01E186D0010A4C
:1047500001E178D0030A69E0010A5AE00F0A4BE050
:10476000010A3CE0030A2DE0010A1EE0070A0FE0FF
:10477000010A09E0030A01E0D2D011D90101020EB9
:10478000ED6FEE6BCCD0030EED6FEE6BC8D0800EEC
:10479000E66E290EE66E46D9E552E5520101040E99
:1047A000ED6F010EEE6FBBD0200EE66E130EE66EBF
:1047B00039D9E552E5520101050EED6F010EEE6F9C
:1047C000AED0840EE66E2D0EE66E2CD9E552E55283
:1047D0000101060EED6F010EEE6FA1D0800EE66EA8
:1047E0002A0EE66E1FD9E552E5520101070EED6F64
:1047F000010EEE6F94D0200EE66E2B0EE66E12D9EF
:10480000E552E5520101080EED6F010EEE6F87D003
:10481000840EE66E2D0EE66E05D9E552E5520101D5
:10482000090EED6F010EEE6F7AD0280EE66E120EB5
:10483000E66EF8D8E552E55201010A0EED6F010E61
:10484000EE6F6DD0E668E66AEDD8E552E5520101FB
:104850000B0EED6F010EEE6F62D0800EE66E010E54
:10486000E66EE0D8E552E55201010C0EED6F010E47
:10487000EE6F55D0800EE66E020EE66ED3D8E5528E
:10488000E55201010D0EED6F010EEE6F48D0800E66
:10489000E66E030EE66EC6D8E552E55201010E0E35
:1048A000ED6F010EEE6F3BD0E668060EE66EBAD8ED
:1048B000E552E55201010F0EED6F010EEE6F2FD0A4
:1048C000010EE66E100EE66EADD8E552E55201011E
:1048D000100EED6F010EEE6F22D0060EE66E89D837
:1048E000E5520101110EED6F010EEE6F18D0E66872
:1048F0008C0EE66EE668C80EE66E780EE66E460E24
:10490000E66E1BD8F56E060EE15EF5500101120E43
:10491000ED6F010EEE6F03D0010EF16F00D0F1517B
:10492000000803E20201010E576F0101F15100D0AE
:10493000E552E552E7CFD9FF1200D9CFE6FFE1CF2C
:10494000D9FF540EE66E94D8E552430EE66E90D829
:10495000E552060EE66E8CD8E552FE0EDBCFE6FF82
:1049600087D8E552FD0EDBCFE6FF82D8E552FC0E7C
:10497000DBCFE6FF7DD8E552FB0EDBCFE6FF78D834
:10498000E552FA0EDBCFE6FF73D8E552F90EDBCF26
:10499000E6FF6ED8E552E552E7CFD9FF12000D0EC3
:1049A000E66E66D8E552120002014E6B120002015B
:1049B0004E5100D01200D9CFE6FFE1CFD9FF520E01
:1049C000E66E56D8E5524D0EE66E52D8E552200EF0
:1049D000E66E4ED8E552FE0EDB50300FE66E48D83C
:1049E000E5520D0EE66E44D8E552E552E7CFD9FF09
:1049F0001200D9CFE6FFE1CFD9FF4E0EE66E38D8D0
:104A0000E552460EE66E34D8E552010EE66E30D819
:104A1000E552FE0EDBCFE6FF2BD8E552E552E7CF9D
:104A2000D9FF1200D9CFE6FFE1CFD9FF430EE66EE2
:104A30001FD8E552520EE66E1BD8E552020EE66E06
:104A400017D8E552FE0EDBCFE6FF12D8E552FD0E79
:104A5000DBCFE6FF0DD8E552E552E7CFD9FF1200D4
:104A600083EC39F000D01200B9EC39F000D012001C
:104A7000D9CFE6FFE1CFD9FFFE0EDBCFE6FF00EC9A
:104A80003AF0E552E552E7CFD9FF120073EC39F066
:104A900000D0120093EC39F000D01200D9CFE6FF1D
:104AA000E1CFD9FFFE0EDBCFE6FFDFEC39F0E552B8
:104AB000E552E7CFD9FF12000101C15103E0010E19
:104AC00003D002D0000E00D01200D9CFE6FFE1CF14
:104AD000D9FF040EE1260101C15163E0C151006E0E
:104AE000016A4F0E005E000E015A00C0DEFF01C0D9
:104AF000DDFFDECF00F0DDCF01F00001800E0114FC
:104B00000CE041684268DECF46F0DDCF47F0EDECC7
:104B10001CF03FC0DEFF40C0DDFF0101C251006E4E
:104B2000016A770E005E000E015A020E00C0DBFF24
:104B3000030E01C0DBFF020EDBCF00F0030EDBCF64
:104B400001F00001800E011410E041684268020E7D
:104B5000DBCF46F0030EDBCF47F0EDEC1CF0020E8E
:104B60003FC0DBFF030E40C0DBFF020EDBCF00F0D7
:104B7000030EDBCF01F0D890015004E6040E005C78
:104B8000000E01580EE2DECF02F0DDCF03F0D89028
:104B9000035004E6040E025C000E035802E2010E0C
:104BA00002D0000E00D0D9CFE1FFE552E7CFD9FF08
:024BB0001200F1
:0E4BB200DACFE4FFE2CFDAFFE9CFE4FFEACF8B
:104BC000E4FFE652F2A202D0A0D802D09EB6CCD822
:104BD000E552E5CFEAFFE5CFE9FFE5CFDAFF1100C7
:104BE000E66A010EE66E050EE66E22EC45F0E55231
:104BF000E552E5521200070EB46E000E886E876E05
:104C0000866E856E846E836E826E816E806E916E0E
:104C1000906E8F6E8E6E8D6E8C6E8B6E8A6E896EC0
:104C20002F0E926EFD0E936E9C0E946E956A966A90
:104C30009768040E986E0E0E9A6E9968C16AF19E7E
:104C4000B0989C8EA26A9F6AA06A9D6AA36AA56AB0
:104C5000C7DF9F86D08E9E969D86F06AF288F09E72
:104C6000F098F192F09AF16AF28CF28E1200D9CF9C
:104C7000E6FFE1CFD9FFE652BEDF0101C097C09940
:104C80000101840EFD6F010EFE6FDF6A100EDF5C06
:104C90000AE2DF50EA6AFD25E96EFE51EA227F0E44
:104CA000EF6EDF2AF3D701019D6B010E9E6FC20EDE
:104CB0009F6F0101C0850101A26BA36B0101806B95
:104CC000826B836B010ED56E320ED76ECF0ED66E11
:104CD000D59E800EE66E010EE66E8BD8E552E5524B
:104CE0000101C093800EE66E010EE66E82D8E55299
:104CF000E5520101C093E552E552E7CFD9FF12001A
:104D000082828088949292981200F2920101200E81
:104D1000F96F9F860101C0A906D00101E00EF66F70
:104D2000000EF76F05D00101C00EF66F000EF76F91
:104D30000101C0A1C079C0A706D00101800EF46FA7
:104D4000000EF56F05D00101A00EF46F000EF56F97
:104D5000C9CFFAF1F4C1E9FFF5C1EAFFF42B000E67
:104D6000F523EF50C96E12009E96C9CFFAF10101EA
:104D7000F951000823E2F6C1E9FFF7C1EAFFF62B7B
:104D8000000EF723FAC1EFFFF4C1E9FFF5C1EAFF16
:104D9000F42BF523EFCFFAF1FAC1C9FFF907F95166
:104DA0000CE10101020E9E6F0101C093C081320E21
:104DB000D76ECF0ED66EF294D58E01D0C96A12008E
:104DC000D9CFE6FFE1CFD9FF0101C0A10ED0FD0E82
:104DD000DBCFE6FFFE0EDBCFE6FF31EC38F0E5522D
:104DE000E5529D960101C0919D86E552E7CFD9FF1E
:104DF0001200D9CFE6FFE1CFD9FF0101C0B332D015
:104E0000FD0EDBCFE9FFFE0EDBCFEAFF1E0EE9262B
:104E1000000EEA22EF50020809E1FD0EDBCFE6FFAB
:104E2000FE0EDBCFE6FF69D8E552E552FD0EDBCF83
:104E3000E9FFFE0EDBCFEAFF150EE926000EEA229F
:104E4000EF9EFD0EDBCFE6FFFE0EDBCFE6FF9FEC15
:104E500037F0E552E5529D960101C077C0839D86EB
:104E600001019D2BE552E7CFD9FF12009D9601016C
:104E7000C0919D861200D9CFE6FFE1CFD9FF000196
:104E80003A6BD950FD0FE96EFF0EDA20EA6E010E83
:104E9000EE1801E1ED5002E13A8101D0BA6AD95031
:104EA000FB0FE96EFF0EDA20EA6E010EEE1801E14B
:104EB000ED5002E13A8301D0B76AD950F90FE96E9B
:104EC000FF0EDA20EA6E010EEE1801E1ED5002E16C
:104ED0003A8501D0736AD950F70FE96EFF0EDA20D8
:104EE000EA6E010EEE1801E1ED5002E13A8701D0C1
:104EF000706AE552E7CFD9FF1200D9CFE6FFE1CFC4
:104F0000D9FFFD0EDBCFE9FFFE0EDBCFEAFF1C0E63
:104F1000E926000EEA22EF6AFD0EDBCFE9FFFE0E66
:104F2000DBCFEAFF170EE926000EEA22EF6AC6AED3
:104F30000ED0C69EFD0EDBCFE9FFFE0EDBCFEAFFF3
:104F4000170EE926000EEA22010EEF6E22D0F15074
:104F5000800B10E0F250080B0DE0FD0EDBCFE9FFF7
:104F6000FE0EDBCFEAFF170EE926000EEA22020E44
:104F7000EF6E0FD0F0A60DD0909EFD0EDBCFE9FFB7
:104F8000FE0EDBCFEAFF170EE926000EEA22030E23
:104F9000EF6E250EC614250819E0FD0EDBCFE9FFE4
:104FA000FE0EDBCFEAFF1C0EE926000EEA22010E00
:104FB000EF6EFD0EDBCFE9FFFE0EDBCFEAFF170E33
:104FC000E926000EEA22C6CFEFFF80D1C55019E0D6
:104FD000FD0EDBCFE9FFFE0EDBCFEAFF1C0EE9265C
:104FE000000EEA22020EEF6EFD0EDBCFE9FFFE0E91
:104FF000DBCFEAFF170EE926000EEA22C5CFEFFF4E
:1050000065D1D0BE19D0FD0EDBCFE9FFFE0EDBCFA0
:10501000EAFF1C0EE926000EEA22030EEF6EFD0EDB
:10502000DBCFE9FFFE0EDBCFEAFF170EE926000E0D
:10503000EA22D0CFEFFF4AD19DB619D0FD0EDBCFCB
:10504000E9FFFE0EDBCFEAFF1C0EE926000EEA2286
:10505000040EEF6EFD0EDBCFE9FFFE0EDBCFEAFFA5
:10506000170EE926000EEA229DCFEFFF2FD19C50AC
:1050700019E0FD0EDBCFE9FFFE0EDBCFEAFF1C0ED1
:10508000E926000EEA22050EEF6EFD0EDBCFE9FFEA
:10509000FE0EDBCFEAFF170EE926000EEA229CCFB8
:1050A000EFFF14D1080E9F5C19E0FD0EDBCFE9FF86
:1050B000FE0EDBCFEAFF1C0EE926000EEA22060EEA
:1050C000EF6EFD0EDBCFE9FFFE0EDBCFEAFF170E22
:1050D000E926000EEA229FCFEFFFF8D0A25019E098
:1050E000FD0EDBCFE9FFFE0EDBCFEAFF1C0EE9264B
:1050F000000EEA22070EEF6EFD0EDBCFE9FFFE0E7B
:10510000DBCFEAFF170EE926000EEA22A2CFEFFF5F
:10511000DDD0A55019E0FD0EDBCFE9FFFE0EDBCFA1
:10512000EAFF1C0EE926000EEA22080EEF6EFD0EC5
:10513000DBCFE9FFFE0EDBCFEAFF170EE926000EFC
:10514000EA22A5CFEFFFC2D0100EF214100819E02A
:10515000FD0EDBCFE9FFFE0EDBCFEAFF1C0EE926DA
:10516000000EEA22090EEF6EFD0EDBCFE9FFFE0E08
:10517000DBCFEAFF170EE926000EEA22F2CFEFFF9F
:10518000A5D0470EF11419E0FD0EDBCFE9FFFE0EAE
:10519000DBCFEAFF1C0EE926000EEA220A0EEF6EB4
:1051A000FD0EDBCFE9FFFE0EDBCFEAFF170EE9268F
:1051B000000EEA22F1CFEFFF89D0C00EF01419E003
:1051C000FD0EDBCFE9FFFE0EDBCFEAFF1C0EE9266A
:1051D000000EEA220B0EEF6EFD0EDBCFE9FFFE0E96
:1051E000DBCFEAFF170EE926000EEA22F0CFEFFF31
:1051F0006DD092A819D0FD0EDBCFE9FFFE0EDBCFFC
:10520000EAFF1C0EE926000EEA220C0EEF6EFD0EE0
:10521000DBCFE9FFFE0EDBCFEAFF170EE926000E1B
:10522000EA2292CFEFFF52D093B019D0FD0EDBCF20
:10523000E9FFFE0EDBCFEAFF1C0EE926000EEA2294
:105240000D0EEF6EFD0EDBCFE9FFFE0EDBCFEAFFAA
:10525000170EE926000EEA2293CFEFFF37D03E0E5D
:1052600094141C0819E0FD0EDBCFE9FFFE0EDBCF26
:10527000EAFF1C0EE926000EEA220E0EEF6EFD0E6E
:10528000DBCFE9FFFE0EDBCFEAFF170EE926000EAB
:10529000EA2294CFEFFF1AD097BE18D0FD0EDBCFD5
:1052A000E9FFFE0EDBCFEAFF1C0EE926000EEA2224
:1052B0000F0EEF6EFD0EDBCFE9FFFE0EDBCFEAFF38
:1052C000170EE926000EEA2297CFEFFFE552E7CF4F
:0452D000D9FF1200F0
:0C52D400D9CFE6FFE1CFD9FFFE0EDB5082
:1052E00011E1FC0EDBCFE9FFFD0EDBCFEAFFEF5053
:1052F0007F0808E2FC0EDBCFE9FFFD0EDBCFEAFF03
:105300007F0EEF6EE552E7CFD9FF1200D9CFE6FF4F
:10531000E1CFD9FFFE0EDB5013E1FC0EDBCFE9FF3E
:10532000FD0EDBCFEAFFEFCF00F07F0E005C08E25E
:10533000FC0EDBCFE9FFFD0EDBCFEAFF7F0EEF6E49
:10534000E552E7CFD9FF1200D9CFE6FFE1CFD9FF71
:10535000FD0EDBCF00F0FE0EDBCF01F0D890015048
:1053600004E6D00E005C070E015806E20201D00EE2
:105370008B6F070E8C6F19D0FD0EDBCF00F0FE0E89
:10538000DBCF01F0013404E20050CE08080E0154D6
:1053900006E20201CE0E8B6F080E8C6F06D0FD0E5A
:1053A000DBCF8BF2FE0EDBCF8CF28BC200F08CC217
:1053B00001F0D00E005E070E015A005000D0E552F9
:1053C000E7CFD9FF1200F00EE66E9BEC3EF0E552FF
:1053D000938A93889386938499829980938E938CF1
:1053E0009A849A82998699849A8A9A8894809A86CD
:1053F0009A8E9A9C919C01017F0E8B6F8BC18AF1D2
:105400008BC189F18BC188F18BC187F18BC186F18A
:105410008BC185F18BC184F1936F93C192F193C1DC
:1054200091F193C190F193C18FF193C18EF193C12A
:105430008DF193C18CF1000EE66EE66AE66EE66AC7
:10544000E66EE66AE66EE66A3BEC27F0F56E080E5D
:10545000E15EF5505CEC16F0F9EC3CF022EC3DF02E
:105460002FEC3DF03BEC3DF048EC3DF054EC3DF0D2
:1054700041EC39F05AEC39F00201010E006F800E58
:10548000E66E010EE66EF9EC26F0E552E55280EF8D
:1054900026F0A00EE66E010EE66EE0EC26F0E55278
:1054A000E552ECEC16F0800EE66E010EE66EF9ECBD
:1054B00026F0E552E5521200A6C184F1A7C185F19C
:1054C000A8C186F1A9C187F1AAC188F1ABC189F150
:1054D000ACC18AF1ADC18BF1AEC18CF1AFC18DF120
:1054E000B0C18EF1B1C18FF10101A651036AD00F95
:1054F000026E070E0322AA5100010224006E000E64
:105500000320016E7F0E005E000E015A00C0E6FF10
:1055100001C0E6FF19DFE552E5520101916F906F7E
:105520000101A651036AD00F026E070E0322AA5191
:10553000046E056A0450025C006E05500358016E4B
:105540007F0E0026000E012200C0E6FF01C0E6FF2C
:10555000FBDEE552E5520101936F926F8150040B1F
:1055600001E0010E006E0101A251010B0014010BBC
:10557000F36EFE0E8D14F3108D6E8150080B01E05A
:10558000010E006EA251020B01E0010E0014010B8E
:10559000F36EFE0E8C14F3108C6E8150100B01E034
:1055A000010E006EA351010B0014010BF36EF346C4
:1055B000FD0E8D14F3108D6E8150200B01E0010E55
:1055C000006EA351020B01E0010E0014010BF36EFB
:1055D000F346FD0E8C14F3108C6EA251100B02E0FA
:1055E0008D8401D08D94A251200B02E08C8401D0D7
:1055F0008C94A351100B02E08D8601D08D96A3519F
:10560000200B02E08C8601D08C96A251040B02E0A4
:105610008D8801D08D98A251080B02E08C8801D0B2
:105620008C98A251400B02E08D8A01D08D9AA25134
:10563000800B02E08C8A01D08C9AA351400B02E0CF
:105640008D8C01D08D9CA351800B02E08C8C01D0FD
:105650008C9C8850800B02E0919001D091808C9EB0
:10566000860EE66E010EE66E8150400B01E0010EE3
:10567000E66E30DEE552E552E552860EE66E010E2C
:10568000E66E8150800B01E0010EE66E3FDEE552D2
:10569000E552E552870EE66E010EE66E8750010B6D
:1056A000E66E18DEE552E552E552870EE66E010E13
:1056B000E66E8750020B01E0010EE66E27DEE55232
:1056C000E552E5528C0EE66E010EE66E8750040B35
:1056D00001E0010EE66EFEDDE552E552E5528C0E6C
:1056E000E66E010EE66E8750080B01E0010EE66ED5
:1056F0000DDEE552E552E5528D0EE66E010EE66EC8
:105700008850020B01E0010EE66EE4DDE552E55241
:10571000E5528D0EE66E010EE66E8850040B01E038
:10572000010EE66EF3DDE552E552E5528E0EE66EB1
:10573000010EE66E8850080B01E0010EE66ECADD30
:10574000E552E552E5528E0EE66E010EE66E82508F
:10575000010BE66EDBDDE552E552E5528F0EE66E9B
:10576000010EE66E8850100B01E0010EE66EB2DD10
:10577000E552E552E5528F0EE66E010EE66E885058
:10578000200B01E0010EE66EC1DDE552E552E55267
:105790000101A1BBBDD0000EA65D07E3A6513808EC
:1057A00004E30101809180832DD07D0EA65D0EE380
:1057B000A651006E016A013404E200508108000E17
:1057C000015404E30101808180831CD0A651006E46
:1057D000016AD890015004E6D80E005C000E015812
:1057E0000EE3A651026E036A033404E20250FF087E
:1057F000000E035404E301018081809303D0010172
:1058000080918093000E0101A75D07E3A75138083E
:1058100004E30101809580872DD07D0EA75D0EE306
:10582000A751006E016A013404E200508108000EA5
:10583000015404E30101808580871CD0A751006ECC
:10584000016AD890015004E6D80E005C000E0158A1
:105850000EE3A751026E036A033404E20250FF080C
:10586000000E035404E301018085809703D00101F9
:1058700080958097809B8D50010B01E0808B8099F3
:105880008C50010B01E08089809F8D50020B01E05C
:10589000808F809D8C50020B01E0808D8150040B25
:1058A00001E0010E006E016A0050011002E0000EDE
:1058B00001D0010E010BF36EFE0E8115F310816F06
:1058C0008150080B01E0010E006E016A00500110CA
:1058D00002E0000E01D0010E010BF36EF346FD0E47
:1058E0008115F310816F8150100B01E0010E006EE5
:1058F000016A0050011002E0000E01D0010E010B00
:10590000F36EF346F346FB0E8115F310816F52D010
:10591000B7C142F0E1EC1AF040C008F041C009F014
:1059200042C00AF043C00BF0710E456E3D0E466E4C
:105930007A0E476E410E486E08C040F009C041F033
:105940000AC042F00BC043F00CEC1CF040C004F065
:1059500041C005F042C006F043C007F0456A466A00
:10596000800E476E430E486E04C040F005C041F003
:1059700006C042F007C043F0B9EC1BF040C000F095
:1059800041C001F042C002F043C003F0456A466ADC
:10599000200E476E410E486E00C040F001C041F03D
:1059A00002C042F003C043F00CEC1CF01AEC1DF0F6
:0659B00042C080F112006C
:0A59B600D9CFE6FFE1CFD9FF120EB2
:1059C000E126DE6ADE6ADE6ADD6ADD52DD52040E41
:1059D000DB6A050EDB6A060EDB6A070EDB6A020174
:1059E000415102014F1904E10201425102015019D3
:1059F00001E1F1D24FC241F250C242F20101C25163
:105A000001E17ED10201010E436F456B4A2B000E6E
:105A10004B2301018F51E66ED950080FE96EDACFA2
:105A2000EAFFE552E750EE6EED6A0101C151006EEA
:105A3000016A4F0E005E000E015A0E0E00C0DBFF21
:105A40000F0E01C0DBFF0E0EDBCF00F00F0EDBCF21
:105A500001F0013404E200500408000E015425E274
:105A6000050E006E016A0E0EDBCF41F00F0EDBCF8C
:105A700042F000C046F001C047F093EC1CF00C0E61
:105A800041C0DBFF0D0E42C0DBFFD9500C0FE96EA9
:105A9000DACFEAFFEE50ED1007E1010EF36E0C0EC7
:105AA000F3CFDBFF0D0EDB6A34D00E0EDBCF00F040
:105AB0000F0EDBCF01F0D880015004E7FC0E005C34
:105AC000FF0E015822E2050E006E016A0E0EDBCFBA
:105AD00041F00F0EDBCF42F000C046F001C047F0AE
:105AE00093EC1CF00C0E41C0DBFF0D0E42C0DBFF3F
:105AF000D9500C0FE96EDACFEAFFEE50ED1004E159
:105B00000C0EDB680D0EDB6804D00C0EDB6A0D0E8C
:105B1000DB6A416842680C0EDBCF46F00D0EDBCF2E
:105B200047F0EDEC1CF03FC000F040C001F0D95050
:105B3000080FE96EDACFEAFF0050EE260150ED22A1
:105B4000080EDBCF00F0090EDBCF01F00001800E64
:105B5000011405E0080EDB6A090EDB6A11D0080E9D
:105B6000DBCF00F0090EDBCF01F0013404E200507E
:105B7000FF08000E015404E2080EDB68090EDB6A20
:105B8000080EDBCF8FF101018E51E66ED9500A0F5E
:105B9000E96EDACFEAFFE552E750EE6EED6A0101F9
:105BA000C251006E016A770E005E000E015A100E9F
:105BB00000C0DBFF110E01C0DBFF100EDBCF00F0D9
:105BC000110EDBCF01F0013404E200500408000E96
:105BD000015425E2060E006E016A100EDBCF41F083
:105BE000110EDBCF42F000C046F001C047F093EC4D
:105BF0001CF00C0E41C0DBFF0D0E42C0DBFFD95084
:105C00000C0FE96EDACFEAFFEE50ED1007E1010E5E
:105C1000F36E0C0EF3CFDBFF0D0EDB6A34D0100EEB
:105C2000DBCF00F0110EDBCF01F0D880015004E78C
:105C3000FC0E005CFF0E015822E2060E006E016AA7
:105C4000100EDBCF41F0110EDBCF42F000C046F06A
:105C500001C047F093EC1CF00C0E41C0DBFF0D0EB1
:105C600042C0DBFFD9500C0FE96EDACFEAFFEE50ED
:105C7000ED1004E10C0EDB680D0EDB6804D00C0E99
:105C8000DB6A0D0EDB6A0C0EDBCF00F00D0EDBCFF6
:105C900001F0D9500A0FE96EDACFEAFF0050EE2684
:105CA0000150ED220A0EDBCF00F00B0EDBCF01F02E
:105CB000D890015004E66B0E005C000E015808E21B
:105CC0006B0EF36E0A0EF3CFDBFF0B0EDB6A14D004
:105CD0000A0EDBCF00F00B0EDBCF01F0013404E243
:105CE0000050F008000E015407E2F00EF36E0A0EA9
:105CF000F3CFDBFF0B0EDB6A0A0EDBCF8EF16BD12D
:105D00000201442B060E4A5D000E4B5902E23FC2CF
:105D100045F2430507E13F51455D000E405502E263
:105D2000452B59D14451000801E355D1446B456BD3
:105D30004A6B4B6B43056CE1436B01018F51E66E7F
:105D4000D950080FE96EDACFEAFFE552E750EE6E60
:105D5000ED6A8E51E66ED9500A0FE96EDACFEAFF8E
:105D6000E552E750EE6EED6A080EDBCF08F0090E43
:105D7000DBCF09F0730E085E000E095A730E466EF3
:105D8000476A08C041F009C042F093EC1CF041C0E2
:105D900008F042C009F008C041F009C042F0F4EC3C
:105DA0001AF040C004F041C005F042C006F043C004
:105DB00007F004C0E6FF05C0E6FF06C0E6FF07C027
:105DC000E6FFE2EC45F0E552E552E552E5523FC010
:105DD00000F040C001F041C002F042C003F0456A4B
:105DE000466A800E476E400E486E00C040F001C00B
:105DF00041F002C042F003C043F0B9EC1BF040C0D8
:105E000046F241C047F242C048F243C049F2DDD0F9
:105E100001018F51E66ED950080FE96EDACFEAFF23
:105E2000E552E750EE6EED6A8E51E66ED9500A0FDC
:105E3000E96EDACFEAFFE552E750EE6EED6A046AEA
:105E4000056A400E066E076E46C245F047C246F030
:105E500048C247F049C248F004C040F005C041F0D4
:105E600006C042F007C043F00CEC1CF040C000F04C
:105E700041C001F042C002F043C003F000C0E6FFA1
:105E800001C0E6FF02C0E6FF03C0E6FFBAEC45F042
:105E9000E552E552E552E5523FC0DEFF40C0DEFF6D
:105EA00041C0DEFF42C0DDFFDD52DD52046A056AFB
:105EB000800E066E400E076E46C245F047C246F0A1
:105EC00048C247F049C248F004C040F005C041F064
:105ED00006C042F007C043F00CEC1CF040C000F0DC
:105EE00041C001F042C002F043C003F000C0E6FF31
:105EF00001C0E6FF02C0E6FF03C0E6FFBAEC45F0D2
:105F0000E552E552E552E552040E3FC0DBFF050EB7
:105F100040C0DBFF060E41C0DBFF070E42C0DBFFC7
:105F2000B40EF36E0A0EF3CFDBFF0B0EDB6A406A92
:105F3000416AE60E426E420E436E040EDBCF45F020
:105F4000050EDBCF46F0060EDBCF47F0070EDBCFAA
:105F500048F00CEC1CF040C000F041C001F042C021
:105F600002F043C003F0456A466AE60E476E420EF1
:105F7000486E00C040F001C041F002C042F003C0D2
:105F800043F023EC1BF041EC1DF0080E41C0DBFF99
:105F9000090E42C0DBFF6F0E456EF00E466E050E19
:105FA000476E3D0E486E46C240F047C241F048C2BF
:105FB00042F049C243F023EC1BF040C046F241C01E
:105FC00047F242C048F243C049F2080EDBCF8FF1DE
:105FD0000A0EDBCF8EF1D9CFE1FFE552E7CFD9FF33
:105FE0001200D9CFE6FFE1CFD9FFFD0EDBCF3FF2A4
:0E5FF000FE0EDBCF40F2E552E7CFD9FF1200E4
:025FFE00D9CFF9
:10600000E6FFDACFE6FFE1CFD9FFE2CFDAFF220EDB
:10601000E12402E3E168E652E16ED950130FE66E27
:10602000000EDA20E66EA6DA8DEC42F0F56E060E72
:10603000E15C02E2E16AE552E16EF550E76E0E0EB8
:10604000E7CFDBFFDB50840B0CE0210E02018D6FEC
:106050008E6B0F0EDB68100EDB68110EDB687F0E97
:106060006ED088DA34DA020E3FC0DBFF030E40C088
:10607000DBFF040E41C0DBFF050E42C0DBFF85DA0B
:10608000456A100E466E490E476E460E12DA70ECE7
:106090001DF0010A32E079DA65DA0BDAB9EC1BF0AF
:1060A000BDD9060EDBCF40F0070EDBCF41F0080E66
:1060B000DBCF42F0090EDBCF43F05DEC1EF009ECC4
:1060C0001BF0ACD962DA060EDBCF08F0070EDBCF8F
:1060D00009F0080EDBCF0AF0090EDBCF0BF042DA35
:1060E000486E08C040F009C041F00AC042F00BC041
:1060F00043F046DA22EC1BF0C2D9F90EDB5012E075
:106100000E0EDB040BE1FA0EDBCF00F0FB0EDBCF53
:1061100001F0FC0EDBCF02F0FD0E52D165D9476ACB
:10612000F6D947D00E0EDB0419E10F0EDB6A100E14
:10613000DB6A800EF36E110EF3CFDBFF3F0EF36EC2
:10614000120EF3CFDBFF0F0EDBCF00F0100EDBCF14
:1061500001F0110EDBCF02F0120E32D1190EDB6A04
:1061600043D9800E476ED3D9006A016A026A3F0E96
:10617000036ED950060FE96E000EDA20EA6EEECFFC
:1061800040F0EECF41F0EECF42F0EFCF43F000C051
:1061900045F001C046F002C047F003C048F022ECD1
:1061A0001BF043C0EDFF42C0EDFF41C0EDFF40C01A
:1061B000EFFFDF50010B0AE0190EDB5002E0000E8A
:1061C00001D0010EE76E190EE7CFDBFF8AD9060E6C
:1061D000DBCF0CF0070EDBCF0DF0080EDBCF0EF09F
:1061E000090EDBCF0FF0456A466A490E476E400E36
:1061F000486E0CC040F00DC041F00EC042F00FC020
:1062000043F00CEC1CF05AD9A4D993D922EC1BF022
:1062100075D9060EDBCF14F0070EDBCF15F0080E94
:10622000DBCF16F0090EDBCF17F0220E456EAA0E5B
:10623000466E7D0E476E3A0E486E14C040F015C093
:1062400041F016C042F017C043F00CEC1CF040C007
:1062500010F041C011F042C012F043C013F0EBD86F
:1062600022EC1BF00A0E40C0DBFF0B0E41C0DBFF2F
:106270000C0E42C0DBFF0D0E43C0DBFFD9500A0FEE
:10628000E96E000EE8D823D93FC000F040C001F00D
:1062900041C002F042C003F0456A466A800E476E74
